{
  "contractName": "SimpleBank",
  "abi": [
    {
      "inputs": [
        {
          "internalType": "address",
          "name": "_sttToken",
          "type": "address"
        }
      ],
      "stateMutability": "nonpayable",
      "type": "constructor"
    },
    {
      "anonymous": false,
      "inputs": [
        {
          "indexed": true,
          "internalType": "address",
          "name": "account",
          "type": "address"
        },
        {
          "indexed": false,
          "internalType": "uint256",
          "name": "amount",
          "type": "uint256"
        }
      ],
      "name": "Deposit",
      "type": "event"
    },
    {
      "anonymous": false,
      "inputs": [
        {
          "indexed": true,
          "internalType": "address",
          "name": "account",
          "type": "address"
        },
        {
          "indexed": false,
          "internalType": "uint256",
          "name": "amount",
          "type": "uint256"
        }
      ],
      "name": "Loan",
      "type": "event"
    },
    {
      "anonymous": false,
      "inputs": [
        {
          "indexed": true,
          "internalType": "address",
          "name": "account",
          "type": "address"
        },
        {
          "indexed": false,
          "internalType": "uint256",
          "name": "amount",
          "type": "uint256"
        }
      ],
      "name": "LoanRepayment",
      "type": "event"
    },
    {
      "anonymous": false,
      "inputs": [
        {
          "indexed": true,
          "internalType": "address",
          "name": "account",
          "type": "address"
        },
        {
          "indexed": false,
          "internalType": "uint256",
          "name": "amount",
          "type": "uint256"
        }
      ],
      "name": "Withdrawal",
      "type": "event"
    },
    {
      "inputs": [],
      "name": "BLOCKS_PER_YEAR",
      "outputs": [
        {
          "internalType": "uint256",
          "name": "",
          "type": "uint256"
        }
      ],
      "stateMutability": "view",
      "type": "function",
      "constant": true
    },
    {
      "inputs": [],
      "name": "FUND_RESERVE_RATIO",
      "outputs": [
        {
          "internalType": "uint256",
          "name": "",
          "type": "uint256"
        }
      ],
      "stateMutability": "view",
      "type": "function",
      "constant": true
    },
    {
      "inputs": [],
      "name": "INTEREST_RATE",
      "outputs": [
        {
          "internalType": "uint256",
          "name": "",
          "type": "uint256"
        }
      ],
      "stateMutability": "view",
      "type": "function",
      "constant": true
    },
    {
      "inputs": [],
      "name": "LOAN_INTEREST_RATE",
      "outputs": [
        {
          "internalType": "uint256",
          "name": "",
          "type": "uint256"
        }
      ],
      "stateMutability": "view",
      "type": "function",
      "constant": true
    },
    {
      "inputs": [],
      "name": "MAX_LOAN_RATIO",
      "outputs": [
        {
          "internalType": "uint256",
          "name": "",
          "type": "uint256"
        }
      ],
      "stateMutability": "view",
      "type": "function",
      "constant": true
    },
    {
      "inputs": [
        {
          "internalType": "address",
          "name": "",
          "type": "address"
        }
      ],
      "name": "deposits",
      "outputs": [
        {
          "internalType": "uint256",
          "name": "",
          "type": "uint256"
        }
      ],
      "stateMutability": "view",
      "type": "function",
      "constant": true
    },
    {
      "inputs": [
        {
          "internalType": "address",
          "name": "",
          "type": "address"
        }
      ],
      "name": "loans",
      "outputs": [
        {
          "internalType": "uint256",
          "name": "",
          "type": "uint256"
        }
      ],
      "stateMutability": "view",
      "type": "function",
      "constant": true
    },
    {
      "inputs": [],
      "name": "sttToken",
      "outputs": [
        {
          "internalType": "contract STT",
          "name": "",
          "type": "address"
        }
      ],
      "stateMutability": "view",
      "type": "function",
      "constant": true
    },
    {
      "inputs": [],
      "name": "totalDeposits",
      "outputs": [
        {
          "internalType": "uint256",
          "name": "",
          "type": "uint256"
        }
      ],
      "stateMutability": "view",
      "type": "function",
      "constant": true
    },
    {
      "inputs": [
        {
          "internalType": "uint256",
          "name": "_amount",
          "type": "uint256"
        }
      ],
      "name": "deposit",
      "outputs": [],
      "stateMutability": "nonpayable",
      "type": "function"
    },
    {
      "inputs": [
        {
          "internalType": "uint256",
          "name": "_amount",
          "type": "uint256"
        }
      ],
      "name": "withdraw",
      "outputs": [],
      "stateMutability": "nonpayable",
      "type": "function"
    },
    {
      "inputs": [
        {
          "internalType": "uint256",
          "name": "_amount",
          "type": "uint256"
        }
      ],
      "name": "borrow",
      "outputs": [],
      "stateMutability": "nonpayable",
      "type": "function"
    },
    {
      "inputs": [
        {
          "internalType": "uint256",
          "name": "_amount",
          "type": "uint256"
        }
      ],
      "name": "repayLoan",
      "outputs": [],
      "stateMutability": "nonpayable",
      "type": "function"
    },
    {
      "inputs": [
        {
          "internalType": "address",
          "name": "_account",
          "type": "address"
        }
      ],
      "name": "calculateInterest",
      "outputs": [
        {
          "internalType": "uint256",
          "name": "",
          "type": "uint256"
        }
      ],
      "stateMutability": "view",
      "type": "function",
      "constant": true
    }
  ],
  "bytecode": "0x60806040523480156200001157600080fd5b506040516200134338038062001343833981810160405281019062000037919062000095565b806000806101000a81548173ffffffffffffffffffffffffffffffffffffffff021916908373ffffffffffffffffffffffffffffffffffffffff160217905550506200010f565b6000815190506200008f81620000f5565b92915050565b600060208284031215620000a857600080fd5b6000620000b8848285016200007e565b91505092915050565b6000620000ce82620000d5565b9050919050565b600073ffffffffffffffffffffffffffffffffffffffff82169050919050565b6200010081620000c1565b81146200010c57600080fd5b50565b611224806200011f6000396000f3fe608060405234801561001057600080fd5b50600436106100ea5760003560e01c8063848a37951161008c578063c5ebeaec11610066578063c5ebeaec14610227578063d37db1d214610243578063e11932cf14610261578063fc7e286d14610291576100ea565b8063848a3795146101d1578063ab7b1c89146101ef578063b6b55f251461020b576100ea565b80635b72a33a116100c85780635b72a33a1461014757806373b4086b146101655780637882bf7e146101955780637d882097146101b3576100ea565b806308ca2615146100ef5780632e1a7d4d1461010d57806342e1639114610129575b600080fd5b6100f76102c1565b6040516101049190610f9e565b60405180910390f35b61012760048036038101906101229190610dc9565b6102c6565b005b610131610597565b60405161013e9190610f9e565b60405180910390f35b61014f61059c565b60405161015c9190610f9e565b60405180910390f35b61017f600480360381019061017a9190610d77565b6105a1565b60405161018c9190610f9e565b60405180910390f35b61019d6105b9565b6040516101aa9190610f43565b60405180910390f35b6101bb6105dd565b6040516101c89190610f9e565b60405180910390f35b6101d96105e3565b6040516101e69190610f9e565b60405180910390f35b61020960048036038101906102049190610dc9565b6105e8565b005b61022560048036038101906102209190610dc9565b610793565b005b610241600480360381019061023c9190610dc9565b61090b565b005b61024b610bed565b6040516102589190610f9e565b60405180910390f35b61027b60048036038101906102769190610d77565b610bf4565b6040516102889190610f9e565b60405180910390f35b6102ab60048036038101906102a69190610d77565b610d0b565b6040516102b89190610f9e565b60405180910390f35b606481565b600160003373ffffffffffffffffffffffffffffffffffffffff1673ffffffffffffffffffffffffffffffffffffffff1681526020019081526020016000205481111561031257600080fd5b600061031d33610bf4565b9050808261032b9190610fca565b60008054906101000a900473ffffffffffffffffffffffffffffffffffffffff1673ffffffffffffffffffffffffffffffffffffffff166370a08231306040518263ffffffff1660e01b81526004016103849190610ec8565b60206040518083038186803b15801561039c57600080fd5b505afa1580156103b0573d6000803e3d6000fd5b505050506040513d601f19601f820116820180604052508101906103d49190610df2565b1015610415576040517f08c379a000000000000000000000000000000000000000000000000000000000815260040161040c90610f7e565b60405180910390fd5b81600160003373ffffffffffffffffffffffffffffffffffffffff1673ffffffffffffffffffffffffffffffffffffffff168152602001908152602001600020600082825461046491906110ab565b92505081905550816003600082825461047d91906110ab565b9250508190555060008054906101000a900473ffffffffffffffffffffffffffffffffffffffff1673ffffffffffffffffffffffffffffffffffffffff1663a9059cbb3383856104cd9190610fca565b6040518363ffffffff1660e01b81526004016104ea929190610f1a565b602060405180830381600087803b15801561050457600080fd5b505af1158015610518573d6000803e3d6000fd5b505050506040513d601f19601f8201168201806040525081019061053c9190610da0565b61054557600080fd5b3373ffffffffffffffffffffffffffffffffffffffff167f7fcf532c15f0a6db0bd6d0e038bea71d30d808c7d98cb3bf7268a95bf5081b658360405161058b9190610f9e565b60405180910390a25050565b605081565b600a81565b60026020528060005260406000206000915090505481565b60008054906101000a900473ffffffffffffffffffffffffffffffffffffffff1681565b60035481565b603281565b600260003373ffffffffffffffffffffffffffffffffffffffff1673ffffffffffffffffffffffffffffffffffffffff1681526020019081526020016000205481111561063457600080fd5b60008054906101000a900473ffffffffffffffffffffffffffffffffffffffff1673ffffffffffffffffffffffffffffffffffffffff166323b872dd3330846040518463ffffffff1660e01b815260040161069193929190610ee3565b602060405180830381600087803b1580156106ab57600080fd5b505af11580156106bf573d6000803e3d6000fd5b505050506040513d601f19601f820116820180604052508101906106e39190610da0565b6106ec57600080fd5b80600260003373ffffffffffffffffffffffffffffffffffffffff1673ffffffffffffffffffffffffffffffffffffffff168152602001908152602001600020600082825461073b91906110ab565b925050819055503373ffffffffffffffffffffffffffffffffffffffff167f6f8286e47ace49394f4a28298c2ba2c5df760a3872931a94e60ab7fe82b809cd826040516107889190610f9e565b60405180910390a250565b60008054906101000a900473ffffffffffffffffffffffffffffffffffffffff1673ffffffffffffffffffffffffffffffffffffffff166323b872dd3330846040518463ffffffff1660e01b81526004016107f093929190610ee3565b602060405180830381600087803b15801561080a57600080fd5b505af115801561081e573d6000803e3d6000fd5b505050506040513d601f19601f820116820180604052508101906108429190610da0565b61084b57600080fd5b80600160003373ffffffffffffffffffffffffffffffffffffffff1673ffffffffffffffffffffffffffffffffffffffff168152602001908152602001600020600082825461089a9190610fca565b9250508190555080600360008282546108b39190610fca565b925050819055503373ffffffffffffffffffffffffffffffffffffffff167fe1fffcc4923d04b559f4d29a8bfc6cda04eb5b0d3c460751c2402c5c5cc9109c826040516109009190610f9e565b60405180910390a250565b600060035460008054906101000a900473ffffffffffffffffffffffffffffffffffffffff1673ffffffffffffffffffffffffffffffffffffffff166370a08231306040518263ffffffff1660e01b81526004016109699190610ec8565b60206040518083038186803b15801561098157600080fd5b505afa158015610995573d6000803e3d6000fd5b505050506040513d601f19601f820116820180604052508101906109b99190610df2565b6109c391906110ab565b905060646050826109d49190611051565b6109de9190611020565b821115610a20576040517f08c379a0000000000000000000000000000000000000000000000000000000008152600401610a1790610f5e565b60405180910390fd5b6000610a2b33610bf4565b905060008054906101000a900473ffffffffffffffffffffffffffffffffffffffff1673ffffffffffffffffffffffffffffffffffffffff1663a9059cbb338386610a7691906110ab565b6040518363ffffffff1660e01b8152600401610a93929190610f1a565b602060405180830381600087803b158015610aad57600080fd5b505af1158015610ac1573d6000803e3d6000fd5b505050506040513d601f19601f82011682018060405250810190610ae59190610da0565b610aee57600080fd5b80600160003373ffffffffffffffffffffffffffffffffffffffff1673ffffffffffffffffffffffffffffffffffffffff1681526020019081526020016000206000828254610b3d9190610fca565b9250508190555082600260003373ffffffffffffffffffffffffffffffffffffffff1673ffffffffffffffffffffffffffffffffffffffff1681526020019081526020016000206000828254610b939190610fca565b925050819055503373ffffffffffffffffffffffffffffffffffffffff167f1db23cf53464267c45324569941e81e23d29c48ff9be2b35af2cc0a2681159d684604051610be09190610f9e565b60405180910390a2505050565b6220148081565b6000806201518062201480612710600a600160008873ffffffffffffffffffffffffffffffffffffffff1673ffffffffffffffffffffffffffffffffffffffff16815260200190815260200160002054610c4e9190611051565b610c589190611020565b610c629190611051565b610c6c9190611020565b9050600062015180622014806127106064600260008973ffffffffffffffffffffffffffffffffffffffff1673ffffffffffffffffffffffffffffffffffffffff16815260200190815260200160002054610cc79190611051565b610cd19190611020565b610cdb9190611051565b610ce59190611020565b9050808211610cf5576000610d02565b8082610d0191906110ab565b5b92505050919050565b60016020528060005260406000206000915090505481565b600081359050610d32816111a9565b92915050565b600081519050610d47816111c0565b92915050565b600081359050610d5c816111d7565b92915050565b600081519050610d71816111d7565b92915050565b600060208284031215610d8957600080fd5b6000610d9784828501610d23565b91505092915050565b600060208284031215610db257600080fd5b6000610dc084828501610d38565b91505092915050565b600060208284031215610ddb57600080fd5b6000610de984828501610d4d565b91505092915050565b600060208284031215610e0457600080fd5b6000610e1284828501610d62565b91505092915050565b610e24816110df565b82525050565b610e3381611127565b82525050565b6000610e46600f83610fb9565b91507f6e6f7420656e6f7567682066756e6400000000000000000000000000000000006000830152602082019050919050565b6000610e86600b83610fb9565b91507f42616e6b2072756e2121210000000000000000000000000000000000000000006000830152602082019050919050565b610ec28161111d565b82525050565b6000602082019050610edd6000830184610e1b565b92915050565b6000606082019050610ef86000830186610e1b565b610f056020830185610e1b565b610f126040830184610eb9565b949350505050565b6000604082019050610f2f6000830185610e1b565b610f3c6020830184610eb9565b9392505050565b6000602082019050610f586000830184610e2a565b92915050565b60006020820190508181036000830152610f7781610e39565b9050919050565b60006020820190508181036000830152610f9781610e79565b9050919050565b6000602082019050610fb36000830184610eb9565b92915050565b600082825260208201905092915050565b6000610fd58261111d565b9150610fe08361111d565b9250827fffffffffffffffffffffffffffffffffffffffffffffffffffffffffffffffff038211156110155761101461114b565b5b828201905092915050565b600061102b8261111d565b91506110368361111d565b9250826110465761104561117a565b5b828204905092915050565b600061105c8261111d565b91506110678361111d565b9250817fffffffffffffffffffffffffffffffffffffffffffffffffffffffffffffffff04831182151516156110a05761109f61114b565b5b828202905092915050565b60006110b68261111d565b91506110c18361111d565b9250828210156110d4576110d361114b565b5b828203905092915050565b60006110ea826110fd565b9050919050565b60008115159050919050565b600073ffffffffffffffffffffffffffffffffffffffff82169050919050565b6000819050919050565b600061113282611139565b9050919050565b6000611144826110fd565b9050919050565b7f4e487b7100000000000000000000000000000000000000000000000000000000600052601160045260246000fd5b7f4e487b7100000000000000000000000000000000000000000000000000000000600052601260045260246000fd5b6111b2816110df565b81146111bd57600080fd5b50565b6111c9816110f1565b81146111d457600080fd5b50565b6111e08161111d565b81146111eb57600080fd5b5056fea2646970667358221220831121592c8b32a11fafb5777875941b8b76c1d0d9fb4a8da3a70e0a1eb169a764736f6c63430008000033",
  "immutableReferences": {},
  "source": "// SPDX-License-Identifier: MIT\r\npragma solidity ^0.8.0;\r\n\r\nimport \"./STT.sol\";\r\n\r\ncontract SimpleBank {\r\n    STT public sttToken;\r\n\r\n    mapping(address => uint256) public deposits;\r\n    mapping(address => uint256) public loans;\r\n    uint256 public totalDeposits;\r\n\r\n    uint256 public constant MAX_LOAN_RATIO = 80;\r\n    uint256 public constant INTEREST_RATE = 10;  // 0.01%\r\n    uint256 public constant LOAN_INTEREST_RATE = 100;  // 0.1%\r\n    uint256 public constant FUND_RESERVE_RATIO = 50;  // 50%\r\n    uint256 public constant BLOCKS_PER_YEAR = 2102400;  // assuming 15 sec block time\r\n\r\n    event Deposit(address indexed account, uint256 amount);\r\n    event Withdrawal(address indexed account, uint256 amount);\r\n    event Loan(address indexed account, uint256 amount);\r\n    event LoanRepayment(address indexed account, uint256 amount);\r\n\r\n    constructor(address _sttToken) {\r\n        sttToken = STT(_sttToken);\r\n    }\r\n\r\n    function deposit(uint256 _amount) public {\r\n        require(sttToken.transferFrom(msg.sender, address(this), _amount));\r\n        deposits[msg.sender] += _amount;\r\n        totalDeposits += _amount;\r\n        emit Deposit(msg.sender, _amount);\r\n    }\r\n\r\n    function withdraw(uint256 _amount) public {\r\n      require(_amount <= deposits[msg.sender]);\r\n      uint256 interest = calculateInterest(msg.sender);\r\n      require(sttToken.balanceOf(address(this)) >= _amount + interest, \"Bank run!!!\");\r\n      deposits[msg.sender] -= _amount;\r\n      totalDeposits -= _amount;\r\n      require(sttToken.transfer(msg.sender, _amount + interest));\r\n      emit Withdrawal(msg.sender, _amount);\r\n    }\r\n\r\n    function borrow(uint256 _amount) public {\r\n        uint256 availableBalance = sttToken.balanceOf(address(this)) - totalDeposits;\r\n        require(_amount <= availableBalance * MAX_LOAN_RATIO / 100, \"not enough fund\");\r\n        uint256 interest = calculateInterest(msg.sender);\r\n        require(sttToken.transfer(msg.sender, _amount - interest));\r\n        deposits[msg.sender] += interest;\r\n        loans[msg.sender] += _amount;\r\n        emit Loan(msg.sender, _amount);\r\n    }\r\n\r\n    function repayLoan(uint256 _amount) public {\r\n        require(_amount <= loans[msg.sender]);\r\n        require(sttToken.transferFrom(msg.sender, address(this), _amount));\r\n        loans[msg.sender] -= _amount;\r\n        emit LoanRepayment(msg.sender, _amount);\r\n    }\r\n\r\n    function calculateInterest(address _account) public view returns (uint256) {\r\n        uint256 depositInterest = deposits[_account] * INTEREST_RATE / 10000 * BLOCKS_PER_YEAR / 86400;\r\n        uint256 loanInterest = loans[_account] * LOAN_INTEREST_RATE / 10000 * BLOCKS_PER_YEAR / 86400;\r\n        return depositInterest > loanInterest ? depositInterest - loanInterest : 0;\r\n    }\r\n\r\n\r\n}",
  "sourcePath": "C:\\Users\\iwall\\Documents\\satang\\contracts\\SimpleBank.sol",
  "compiler": {
    "name": "solc",
    "version": "0.8.0+commit.c7dfd78e.Emscripten.clang"
  },
  "schemaVersion": "3.4.13",
  "updatedAt": "2023-04-08T12:10:16.590Z",
  "networkType": "ethereum",
  "devdoc": {
    "kind": "dev",
    "methods": {},
    "version": 1
  },
  "userdoc": {
    "kind": "user",
    "methods": {},
    "version": 1
  }
}