{
  "contractName": "SimpleBank",
  "abi": [
    {
      "inputs": [
        {
          "internalType": "address",
          "name": "_sttToken",
          "type": "address"
        }
      ],
      "stateMutability": "nonpayable",
      "type": "constructor"
    },
    {
      "anonymous": false,
      "inputs": [
        {
          "indexed": true,
          "internalType": "address",
          "name": "account",
          "type": "address"
        },
        {
          "indexed": false,
          "internalType": "uint256",
          "name": "amount",
          "type": "uint256"
        }
      ],
      "name": "Deposit",
      "type": "event"
    },
    {
      "anonymous": false,
      "inputs": [
        {
          "indexed": true,
          "internalType": "address",
          "name": "account",
          "type": "address"
        },
        {
          "indexed": false,
          "internalType": "uint256",
          "name": "amount",
          "type": "uint256"
        }
      ],
      "name": "Loan",
      "type": "event"
    },
    {
      "anonymous": false,
      "inputs": [
        {
          "indexed": true,
          "internalType": "address",
          "name": "account",
          "type": "address"
        },
        {
          "indexed": false,
          "internalType": "uint256",
          "name": "amount",
          "type": "uint256"
        }
      ],
      "name": "LoanRepayment",
      "type": "event"
    },
    {
      "anonymous": false,
      "inputs": [
        {
          "indexed": true,
          "internalType": "address",
          "name": "account",
          "type": "address"
        },
        {
          "indexed": false,
          "internalType": "uint256",
          "name": "amount",
          "type": "uint256"
        }
      ],
      "name": "Withdrawal",
      "type": "event"
    },
    {
      "inputs": [],
      "name": "BLOCKS_PER_YEAR",
      "outputs": [
        {
          "internalType": "uint256",
          "name": "",
          "type": "uint256"
        }
      ],
      "stateMutability": "view",
      "type": "function",
      "constant": true
    },
    {
      "inputs": [],
      "name": "FUND_RESERVE_RATIO",
      "outputs": [
        {
          "internalType": "uint256",
          "name": "",
          "type": "uint256"
        }
      ],
      "stateMutability": "view",
      "type": "function",
      "constant": true
    },
    {
      "inputs": [],
      "name": "INTEREST_RATE",
      "outputs": [
        {
          "internalType": "uint256",
          "name": "",
          "type": "uint256"
        }
      ],
      "stateMutability": "view",
      "type": "function",
      "constant": true
    },
    {
      "inputs": [],
      "name": "LOAN_INTEREST_RATE",
      "outputs": [
        {
          "internalType": "uint256",
          "name": "",
          "type": "uint256"
        }
      ],
      "stateMutability": "view",
      "type": "function",
      "constant": true
    },
    {
      "inputs": [],
      "name": "MAX_LOAN_RATIO",
      "outputs": [
        {
          "internalType": "uint256",
          "name": "",
          "type": "uint256"
        }
      ],
      "stateMutability": "view",
      "type": "function",
      "constant": true
    },
    {
      "inputs": [
        {
          "internalType": "address",
          "name": "",
          "type": "address"
        }
      ],
      "name": "deposits",
      "outputs": [
        {
          "internalType": "uint256",
          "name": "",
          "type": "uint256"
        }
      ],
      "stateMutability": "view",
      "type": "function",
      "constant": true
    },
    {
      "inputs": [
        {
          "internalType": "address",
          "name": "",
          "type": "address"
        }
      ],
      "name": "loans",
      "outputs": [
        {
          "internalType": "uint256",
          "name": "",
          "type": "uint256"
        }
      ],
      "stateMutability": "view",
      "type": "function",
      "constant": true
    },
    {
      "inputs": [],
      "name": "sttToken",
      "outputs": [
        {
          "internalType": "contract STT",
          "name": "",
          "type": "address"
        }
      ],
      "stateMutability": "view",
      "type": "function",
      "constant": true
    },
    {
      "inputs": [],
      "name": "totalDeposits",
      "outputs": [
        {
          "internalType": "uint256",
          "name": "",
          "type": "uint256"
        }
      ],
      "stateMutability": "view",
      "type": "function",
      "constant": true
    },
    {
      "inputs": [
        {
          "internalType": "uint256",
          "name": "_amount",
          "type": "uint256"
        }
      ],
      "name": "deposit",
      "outputs": [],
      "stateMutability": "nonpayable",
      "type": "function"
    },
    {
      "inputs": [
        {
          "internalType": "uint256",
          "name": "_amount",
          "type": "uint256"
        }
      ],
      "name": "withdraw",
      "outputs": [],
      "stateMutability": "nonpayable",
      "type": "function"
    },
    {
      "inputs": [
        {
          "internalType": "uint256",
          "name": "_amount",
          "type": "uint256"
        }
      ],
      "name": "borrow",
      "outputs": [],
      "stateMutability": "nonpayable",
      "type": "function"
    },
    {
      "inputs": [
        {
          "internalType": "uint256",
          "name": "_amount",
          "type": "uint256"
        }
      ],
      "name": "repayLoan",
      "outputs": [],
      "stateMutability": "nonpayable",
      "type": "function"
    },
    {
      "inputs": [
        {
          "internalType": "address",
          "name": "_account",
          "type": "address"
        }
      ],
      "name": "calculateInterest",
      "outputs": [
        {
          "internalType": "uint256",
          "name": "",
          "type": "uint256"
        }
      ],
      "stateMutability": "view",
      "type": "function",
      "constant": true
    },
    {
      "inputs": [],
      "name": "checkBankRun",
      "outputs": [
        {
          "internalType": "bool",
          "name": "",
          "type": "bool"
        }
      ],
      "stateMutability": "view",
      "type": "function",
      "constant": true
    },
    {
      "inputs": [],
      "name": "withdrawAll",
      "outputs": [],
      "stateMutability": "nonpayable",
      "type": "function"
    }
  ],
  "bytecode": "0x60806040523480156200001157600080fd5b506040516200157738038062001577833981810160405281019062000037919062000095565b806000806101000a81548173ffffffffffffffffffffffffffffffffffffffff021916908373ffffffffffffffffffffffffffffffffffffffff160217905550506200010f565b6000815190506200008f81620000f5565b92915050565b600060208284031215620000a857600080fd5b6000620000b8848285016200007e565b91505092915050565b6000620000ce82620000d5565b9050919050565b600073ffffffffffffffffffffffffffffffffffffffff82169050919050565b6200010081620000c1565b81146200010c57600080fd5b50565b611458806200011f6000396000f3fe608060405234801561001057600080fd5b50600436106101005760003560e01c8063853828b611610097578063c5ebeaec11610066578063c5ebeaec14610265578063d37db1d214610281578063e11932cf1461029f578063fc7e286d146102cf57610100565b8063853828b61461020557806388830bad1461020f578063ab7b1c891461022d578063b6b55f251461024957610100565b806373b4086b116100d357806373b4086b1461017b5780637882bf7e146101ab5780637d882097146101c9578063848a3795146101e757610100565b806308ca2615146101055780632e1a7d4d1461012357806342e163911461013f5780635b72a33a1461015d575b600080fd5b61010d6102ff565b60405161011a91906111d2565b60405180910390f35b61013d60048036038101906101389190611033565b610304565b005b61014761059f565b60405161015491906111d2565b60405180910390f35b6101656105a4565b60405161017291906111d2565b60405180910390f35b61019560048036038101906101909190610fe1565b6105a9565b6040516101a291906111d2565b60405180910390f35b6101b36105c1565b6040516101c09190611197565b60405180910390f35b6101d16105e5565b6040516101de91906111d2565b60405180910390f35b6101ef6105eb565b6040516101fc91906111d2565b60405180910390f35b61020d6105f0565b005b6102176107a5565b604051610224919061117c565b60405180910390f35b61024760048036038101906102429190611033565b610888565b005b610263600480360381019061025e9190611033565b610a33565b005b61027f600480360381019061027a9190611033565b610bab565b005b610289610e57565b60405161029691906111d2565b60405180910390f35b6102b960048036038101906102b49190610fe1565b610e5e565b6040516102c691906111d2565b60405180910390f35b6102e960048036038101906102e49190610fe1565b610f75565b6040516102f691906111d2565b60405180910390f35b606481565b600160003373ffffffffffffffffffffffffffffffffffffffff1673ffffffffffffffffffffffffffffffffffffffff1681526020019081526020016000205481111561035057600080fd5b600061035b33610e5e565b9050808261036991906111fe565b60008054906101000a900473ffffffffffffffffffffffffffffffffffffffff1673ffffffffffffffffffffffffffffffffffffffff166370a08231306040518263ffffffff1660e01b81526004016103c29190611101565b60206040518083038186803b1580156103da57600080fd5b505afa1580156103ee573d6000803e3d6000fd5b505050506040513d601f19601f82011682018060405250810190610412919061105c565b101561041d57600080fd5b81600160003373ffffffffffffffffffffffffffffffffffffffff1673ffffffffffffffffffffffffffffffffffffffff168152602001908152602001600020600082825461046c91906112df565b92505081905550816003600082825461048591906112df565b9250508190555060008054906101000a900473ffffffffffffffffffffffffffffffffffffffff1673ffffffffffffffffffffffffffffffffffffffff1663a9059cbb3383856104d591906111fe565b6040518363ffffffff1660e01b81526004016104f2929190611153565b602060405180830381600087803b15801561050c57600080fd5b505af1158015610520573d6000803e3d6000fd5b505050506040513d601f19601f82011682018060405250810190610544919061100a565b61054d57600080fd5b3373ffffffffffffffffffffffffffffffffffffffff167f7fcf532c15f0a6db0bd6d0e038bea71d30d808c7d98cb3bf7268a95bf5081b658360405161059391906111d2565b60405180910390a25050565b603281565b600a81565b60026020528060005260406000206000915090505481565b60008054906101000a900473ffffffffffffffffffffffffffffffffffffffff1681565b60035481565b603281565b600015156105fc6107a5565b15151461063e576040517f08c379a0000000000000000000000000000000000000000000000000000000008152600401610635906111b2565b60405180910390fd5b60008060009054906101000a900473ffffffffffffffffffffffffffffffffffffffff1673ffffffffffffffffffffffffffffffffffffffff166370a08231306040518263ffffffff1660e01b815260040161069a9190611101565b60206040518083038186803b1580156106b257600080fd5b505afa1580156106c6573d6000803e3d6000fd5b505050506040513d601f19601f820116820180604052508101906106ea919061105c565b905060008054906101000a900473ffffffffffffffffffffffffffffffffffffffff1673ffffffffffffffffffffffffffffffffffffffff1663a9059cbb33836040518363ffffffff1660e01b8152600401610747929190611153565b602060405180830381600087803b15801561076157600080fd5b505af1158015610775573d6000803e3d6000fd5b505050506040513d601f19601f82011682018060405250810190610799919061100a565b6107a257600080fd5b50565b6000806000600354116107b95760006107d5565b606460326003546107ca9190611285565b6107d49190611254565b5b90508060008054906101000a900473ffffffffffffffffffffffffffffffffffffffff1673ffffffffffffffffffffffffffffffffffffffff166370a08231306040518263ffffffff1660e01b81526004016108319190611101565b60206040518083038186803b15801561084957600080fd5b505afa15801561085d573d6000803e3d6000fd5b505050506040513d601f19601f82011682018060405250810190610881919061105c565b1091505090565b600260003373ffffffffffffffffffffffffffffffffffffffff1673ffffffffffffffffffffffffffffffffffffffff168152602001908152602001600020548111156108d457600080fd5b60008054906101000a900473ffffffffffffffffffffffffffffffffffffffff1673ffffffffffffffffffffffffffffffffffffffff166323b872dd3330846040518463ffffffff1660e01b81526004016109319392919061111c565b602060405180830381600087803b15801561094b57600080fd5b505af115801561095f573d6000803e3d6000fd5b505050506040513d601f19601f82011682018060405250810190610983919061100a565b61098c57600080fd5b80600260003373ffffffffffffffffffffffffffffffffffffffff1673ffffffffffffffffffffffffffffffffffffffff16815260200190815260200160002060008282546109db91906112df565b925050819055503373ffffffffffffffffffffffffffffffffffffffff167f6f8286e47ace49394f4a28298c2ba2c5df760a3872931a94e60ab7fe82b809cd82604051610a2891906111d2565b60405180910390a250565b60008054906101000a900473ffffffffffffffffffffffffffffffffffffffff1673ffffffffffffffffffffffffffffffffffffffff166323b872dd3330846040518463ffffffff1660e01b8152600401610a909392919061111c565b602060405180830381600087803b158015610aaa57600080fd5b505af1158015610abe573d6000803e3d6000fd5b505050506040513d601f19601f82011682018060405250810190610ae2919061100a565b610aeb57600080fd5b80600160003373ffffffffffffffffffffffffffffffffffffffff1673ffffffffffffffffffffffffffffffffffffffff1681526020019081526020016000206000828254610b3a91906111fe565b925050819055508060036000828254610b5391906111fe565b925050819055503373ffffffffffffffffffffffffffffffffffffffff167fe1fffcc4923d04b559f4d29a8bfc6cda04eb5b0d3c460751c2402c5c5cc9109c82604051610ba091906111d2565b60405180910390a250565b600060035460008054906101000a900473ffffffffffffffffffffffffffffffffffffffff1673ffffffffffffffffffffffffffffffffffffffff166370a08231306040518263ffffffff1660e01b8152600401610c099190611101565b60206040518083038186803b158015610c2157600080fd5b505afa158015610c35573d6000803e3d6000fd5b505050506040513d601f19601f82011682018060405250810190610c59919061105c565b610c6391906112df565b90506064603282610c749190611285565b610c7e9190611254565b821115610c8a57600080fd5b6000610c9533610e5e565b905060008054906101000a900473ffffffffffffffffffffffffffffffffffffffff1673ffffffffffffffffffffffffffffffffffffffff1663a9059cbb338386610ce091906112df565b6040518363ffffffff1660e01b8152600401610cfd929190611153565b602060405180830381600087803b158015610d1757600080fd5b505af1158015610d2b573d6000803e3d6000fd5b505050506040513d601f19601f82011682018060405250810190610d4f919061100a565b610d5857600080fd5b80600160003373ffffffffffffffffffffffffffffffffffffffff1673ffffffffffffffffffffffffffffffffffffffff1681526020019081526020016000206000828254610da791906111fe565b9250508190555082600260003373ffffffffffffffffffffffffffffffffffffffff1673ffffffffffffffffffffffffffffffffffffffff1681526020019081526020016000206000828254610dfd91906111fe565b925050819055503373ffffffffffffffffffffffffffffffffffffffff167f1db23cf53464267c45324569941e81e23d29c48ff9be2b35af2cc0a2681159d684604051610e4a91906111d2565b60405180910390a2505050565b6220148081565b6000806201518062201480612710600a600160008873ffffffffffffffffffffffffffffffffffffffff1673ffffffffffffffffffffffffffffffffffffffff16815260200190815260200160002054610eb89190611285565b610ec29190611254565b610ecc9190611285565b610ed69190611254565b9050600062015180622014806127106064600260008973ffffffffffffffffffffffffffffffffffffffff1673ffffffffffffffffffffffffffffffffffffffff16815260200190815260200160002054610f319190611285565b610f3b9190611254565b610f459190611285565b610f4f9190611254565b9050808211610f5f576000610f6c565b8082610f6b91906112df565b5b92505050919050565b60016020528060005260406000206000915090505481565b600081359050610f9c816113dd565b92915050565b600081519050610fb1816113f4565b92915050565b600081359050610fc68161140b565b92915050565b600081519050610fdb8161140b565b92915050565b600060208284031215610ff357600080fd5b600061100184828501610f8d565b91505092915050565b60006020828403121561101c57600080fd5b600061102a84828501610fa2565b91505092915050565b60006020828403121561104557600080fd5b600061105384828501610fb7565b91505092915050565b60006020828403121561106e57600080fd5b600061107c84828501610fcc565b91505092915050565b61108e81611313565b82525050565b61109d81611325565b82525050565b6110ac8161135b565b82525050565b60006110bf600b836111ed565b91507f42616e6b2072756e2121210000000000000000000000000000000000000000006000830152602082019050919050565b6110fb81611351565b82525050565b60006020820190506111166000830184611085565b92915050565b60006060820190506111316000830186611085565b61113e6020830185611085565b61114b60408301846110f2565b949350505050565b60006040820190506111686000830185611085565b61117560208301846110f2565b9392505050565b60006020820190506111916000830184611094565b92915050565b60006020820190506111ac60008301846110a3565b92915050565b600060208201905081810360008301526111cb816110b2565b9050919050565b60006020820190506111e760008301846110f2565b92915050565b600082825260208201905092915050565b600061120982611351565b915061121483611351565b9250827fffffffffffffffffffffffffffffffffffffffffffffffffffffffffffffffff038211156112495761124861137f565b5b828201905092915050565b600061125f82611351565b915061126a83611351565b92508261127a576112796113ae565b5b828204905092915050565b600061129082611351565b915061129b83611351565b9250817fffffffffffffffffffffffffffffffffffffffffffffffffffffffffffffffff04831182151516156112d4576112d361137f565b5b828202905092915050565b60006112ea82611351565b91506112f583611351565b9250828210156113085761130761137f565b5b828203905092915050565b600061131e82611331565b9050919050565b60008115159050919050565b600073ffffffffffffffffffffffffffffffffffffffff82169050919050565b6000819050919050565b60006113668261136d565b9050919050565b600061137882611331565b9050919050565b7f4e487b7100000000000000000000000000000000000000000000000000000000600052601160045260246000fd5b7f4e487b7100000000000000000000000000000000000000000000000000000000600052601260045260246000fd5b6113e681611313565b81146113f157600080fd5b50565b6113fd81611325565b811461140857600080fd5b50565b61141481611351565b811461141f57600080fd5b5056fea2646970667358221220fa7bf680fa64d2ac82f7dd0dad20d3e0b4be6b8350c92a1938c80b476f6457d564736f6c63430008000033",
  "immutableReferences": {},
  "source": "// SPDX-License-Identifier: MIT\r\npragma solidity ^0.8.0;\r\n\r\nimport \"./STT.sol\";\r\n\r\ncontract SimpleBank {\r\n    STT public sttToken;\r\n\r\n    mapping(address => uint256) public deposits;\r\n    mapping(address => uint256) public loans;\r\n    uint256 public totalDeposits;\r\n\r\n    uint256 public constant MAX_LOAN_RATIO = 50;\r\n    uint256 public constant INTEREST_RATE = 10;  // 0.01%\r\n    uint256 public constant LOAN_INTEREST_RATE = 100;  // 0.1%\r\n    uint256 public constant FUND_RESERVE_RATIO = 50;  // 50%\r\n    uint256 public constant BLOCKS_PER_YEAR = 2102400;  // assuming 15 sec block time\r\n\r\n    event Deposit(address indexed account, uint256 amount);\r\n    event Withdrawal(address indexed account, uint256 amount);\r\n    event Loan(address indexed account, uint256 amount);\r\n    event LoanRepayment(address indexed account, uint256 amount);\r\n\r\n    constructor(address _sttToken) {\r\n        sttToken = STT(_sttToken);\r\n    }\r\n\r\n    function deposit(uint256 _amount) public {\r\n        require(sttToken.transferFrom(msg.sender, address(this), _amount));\r\n        deposits[msg.sender] += _amount;\r\n        totalDeposits += _amount;\r\n        emit Deposit(msg.sender, _amount);\r\n    }\r\n\r\n    function withdraw(uint256 _amount) public {\r\n        require(_amount <= deposits[msg.sender]);\r\n        uint256 interest = calculateInterest(msg.sender);\r\n        require(sttToken.balanceOf(address(this)) >= _amount + interest);\r\n        deposits[msg.sender] -= _amount;\r\n        totalDeposits -= _amount;\r\n        require(sttToken.transfer(msg.sender, _amount + interest));\r\n        emit Withdrawal(msg.sender, _amount);\r\n    }\r\n\r\n    function borrow(uint256 _amount) public {\r\n        uint256 availableBalance = sttToken.balanceOf(address(this)) - totalDeposits;\r\n        require(_amount <= availableBalance * MAX_LOAN_RATIO / 100);\r\n        uint256 interest = calculateInterest(msg.sender);\r\n        require(sttToken.transfer(msg.sender, _amount - interest));\r\n        deposits[msg.sender] += interest;\r\n        loans[msg.sender] += _amount;\r\n        emit Loan(msg.sender, _amount);\r\n    }\r\n\r\n    function repayLoan(uint256 _amount) public {\r\n        require(_amount <= loans[msg.sender]);\r\n        require(sttToken.transferFrom(msg.sender, address(this), _amount));\r\n        loans[msg.sender] -= _amount;\r\n        emit LoanRepayment(msg.sender, _amount);\r\n    }\r\n\r\n    function calculateInterest(address _account) public view returns (uint256) {\r\n        uint256 depositInterest = deposits[_account] * INTEREST_RATE / 10000 * BLOCKS_PER_YEAR / 86400;\r\n        uint256 loanInterest = loans[_account] * LOAN_INTEREST_RATE / 10000 * BLOCKS_PER_YEAR / 86400;\r\n        return depositInterest > loanInterest ? depositInterest - loanInterest : 0;\r\n    }\r\n\r\n    function checkBankRun() public view returns (bool) {\r\n        uint256 reserveRatio = totalDeposits > 0 ? totalDeposits * FUND_RESERVE_RATIO / 100 : 0;\r\n        return sttToken.balanceOf(address(this)) < reserveRatio;\r\n    }\r\n\r\n    function withdrawAll() public {\r\n        require(checkBankRun() == false, \"Bank run!!!\");\r\n        uint256 balance = sttToken.balanceOf(address(this));\r\n        require(sttToken.transfer(msg.sender, balance));\r\n    }\r\n\r\n}",
  "sourcePath": "C:\\Users\\iwall\\Documents\\satang\\contracts\\SimpleBank.sol",
  "compiler": {
    "name": "solc",
    "version": "0.8.0+commit.c7dfd78e.Emscripten.clang"
  },
  "schemaVersion": "3.4.13",
  "updatedAt": "2023-04-08T03:57:27.916Z",
  "networkType": "ethereum",
  "devdoc": {
    "kind": "dev",
    "methods": {},
    "version": 1
  },
  "userdoc": {
    "kind": "user",
    "methods": {},
    "version": 1
  }
}